:020000040800F2
:100000005821002439030008215F0008895D000899
:10001000195F000831050008897C00080000000015
:10002000000000000000000000000000D96500088A
:100030003905000800000000995F0008E16500082C
:100040005303000853030008530300085303000838
:100050005303000853030008530300085303000828
:100060005303000853030008530300085303000818
:100070005303000853030008530300085303000808
:1000800053030008530300085303000853030008F8
:1000900053030008530300085303000853030008E8
:1000A0005303000831680008530300085303000895
:1000B00053030008530300085303000853030008C8
:1000C00053030008530300085303000853030008B8
:1000D00053030008530300085303000853030008A8
:1000E00053030008530300080000000053030008F6
:1000F0005303000853030008530300085303000888
:100100005303000853030008530300085303000877
:100110005303000853030008530300085303000867
:100120005303000853030008530300085303000857
:100130005303000853030008530300085303000847
:1001400000000000000000000000000000000000AF
:100150005303000853030008530300085303000827
:100160005303000853030008530300085303000817
:100170005303000853030008530300085303000807
:1001800053030008530300085303000853030008F7
:1001900053030008530300085303000853030008E7
:1001A00053030008530300085303000853030008D7
:1001B00053030008530300085303000853030008C7
:1001C00053030008530300085303000853030008B7
:1001D00053030008530300085303000853030008A7
:1001E0005303000853030008530300085303000897
:1001F0005303000853030008530300085303000887
:100200005303000853030008530300085303000876
:100210005303000853030008530300085303000866
:1002200053030008530300085303000800000000B4
:1002300053030008530300080000000053030008A4
:100240005303000853030008530300085303000836
:100250005303000853030008530300085303000826
:100260005303000853030008530300085303000816
:100270005303000853030008530300080000000064
:100280005303000853030008530300080000000054
:10029000000000005303000800F002F800F03CF8F2
:1002A0000AA090E8000C82448344AAF10107DA45D1
:1002B00001D100F031F8AFF2090EBAE80F0013F0E7
:1002C000010F18BFFB1A43F001031847E87C000038
:1002D000087D0000103A24BF78C878C1FAD85207C8
:1002E00024BF30C830C144BF04680C6070470000B0
:1002F0000023002400250026103A28BF78C1FBD82F
:10030000520728BF30C148BF0B6070471FB507F0C8
:1003100040FD1FBD10B510BD00F0D0F81146FFF72D
:10032000F5FF07F025FD00F0EEF803B4FFF7F2FF4C
:1003300003BC00F0F5F80000094880470948004771
:10034000FEE7FEE7FEE7FEE7FEE7FEE7FEE7FEE785
:10035000FEE7FEE704480549054A064B70470000E2
:10036000D166000899020008580100245821002491
:10037000581100245811002453EA020C00F069803F
:100380002DE9F04B4FF00006002B1FBFB3FA83F5A9
:1003900003FA05F424FA05F65E4012BF1643B2FADA
:1003A00082F502FA05F4C5F120051EBF22FA05FC0C
:1003B00044EA0C04203556EA044C4FEA144418BFB2
:1003C000641C4FF000084FF00009904271EB030CE1
:1003D00039D3002919BFB1FA81F701FA07F6B0FA4B
:1003E00080F700FA07F6C7F120071EBF20FA07FCC6
:1003F00046EA0C062037B6FBF4FCA7EB0507103FD6
:1004000007F01F0BCBF120062CFA06F60CFA0BFBBB
:1004100044BFB3460026202FA4BF5E464FF0000B1A
:100420005BEA060C08BF4FF0010B19EB0B0948EB18
:100430000608ABFB027C06FB02CC0BFB03CCC01B0B
:1004400071EB0C01C1E70B46024641464846BDE848
:10045000F08B13B5084318BF4FF0FF300146AFF3E0
:100460000080BDE81C4070474FF0000200B5134605
:1004700094469646203922BFA0E80C50A0E80C50C4
:10048000B1F12001BFF4F7AF090728BFA0E80C5075
:1004900048BF0CC05DF804EB890028BF40F8042B6E
:1004A00008BF704748BF20F8022B11F0804F18BFDB
:1004B00000F8012B7047704770477047754600F091
:1004C0002BF8AE4605006946534620F007008546E6
:1004D00018B020B5FFF73EFFBDE820404FF0000602
:1004E0004FF000074FF000084FF0000BAC46ACE8AF
:1004F000C009ACE8C009ACE8C009ACE8C00921F00B
:1005000007018D46704710B50446AFF300802046C2
:10051000BDE81040FFF709BF0048704710000024F5
:1005200001491820ABBEFEE726000200704700001C
:10053000FFE7FEE700000000704700000000000039
:1005400081B0EFF3108072B60090FFE7FEE7000085
:1005500080B590B00F900E9100200D908020C5F6D0
:1005600000000A900F980021C5F60201884250D081
:10057000FFE70F9840F20041C5F60201884248D0DB
:10058000FFE70F9840F60001C5F60201884240D00F
:10059000FFE70F9840F60041C5F60201884238D0C7
:1005A000FFE70F9841F20001C5F60201884230D002
:1005B000FFE70F9841F20041C5F60201884228D0BA
:1005C000FFE70F9841F60001C5F60201884220D0EE
:1005D000FFE70F9841F60041C5F60201884218D0A6
:1005E000FFE70F9842F20001C5F60201884210D0E1
:1005F000FFE70F9842F20041C5F60201884208D099
:10060000FFE70F9842F60001C5F60201884201D1CA
:10061000FFE707E047F69260C0F60000B32107F05D
:100620009FFBFFE70E980088002806D0FFE70E9892
:100630004088002801D1FFE707E047F69260C0F646
:100640000000B42107F08CFBFFE70E9840680028FB
:100650003DD0FFE70E984068012838D0FFE70E989C
:100660004068112833D0FFE70E98406802282ED04A
:10067000FFE70E984068122829D0FFE70E984068DF
:10068000B0F5881F23D0FFE70E984068B0F5041F2F
:100690001DD0FFE70E984068B0F5441F17D0FFE764
:1006A0000E984068B0F5901F11D0FFE70E98406893
:1006B000B0F5081F0BD0FFE70E984068B0F5481F53
:1006C00005D0FFE70E984068032801D1FFE707E057
:1006D00047F69260C0F60000B52107F041FBFFE746
:1006E000FFE70E9800680D99C840002800F0798255
:1006F000FFE70E9800680D99012202FA01F1084007
:100700000C900C98002800F06882FFE70E98406873
:1007100000F00300012807D0FFE70E98406800F0C2
:10072000030002284CD1FFE70E98C06800280FD0C4
:10073000FFE70E98C06801280AD0FFE70E98C0684E
:10074000022805D0FFE70E98C068032801D1FFE713
:1007500007E047F69260C0F60000C42107F000FBF6
:10076000FFE70F9880680B900D984000032101FA75
:1007700000F00B9921EA00000B900E98C0680D99CB
:10078000490088400B9908430B900B980F9988609B
:100790000F9840680B900D98012101FA00F00B9919
:1007A00021EA00000B900E984068C0F300100D99EC
:1007B00088400B9908430B900B980F994860FFE70E
:1007C0000E98406800F00300032830D0FFE70E9831
:1007D000806800280AD0FFE70E988068012805D0BD
:1007E000FFE70E988068022801D1FFE707E047F68F
:1007F0009260C0F60000D62107F0B2FAFFE70F982A
:10080000C0680B900D984000032101FA00F00B998D
:1008100021EA00000B900E9880680D9949008840ED
:100820000B9908430B900B980F99C860FFE70E983F
:10083000406800F00300022840F09580FFE70F9821
:100840000021C5F60201884250D0FFE70F9840F220
:100850000041C5F60201884248D0FFE70F9840F6F4
:100860000001C5F60201884240D0FFE70F9840F62C
:100870000041C5F60201884238D0FFE70F9841F2E7
:100880000001C5F60201884230D0FFE70F9841F21F
:100890000041C5F60201884228D0FFE70F9841F6D3
:1008A0000001C5F60201884220D0FFE70F9841F60B
:1008B0000041C5F60201884218D0FFE70F9842F2C6
:1008C0000001C5F60201884210D0FFE70F9842F2FE
:1008D0000041C5F60201884208D0FFE70F9842F6B2
:1008E0000001C5F60201884201D1FFE707E047F6A3
:1008F0009260C0F60000E32107F032FAFFE70E989D
:1009000000690F2801D8FFE707E047F69260C0F6BC
:100910000000E42107F024FAFFE70F980D996FF02B
:10092000030202EA51010844006A0B900D9800F09E
:10093000070080000F2101FA00F00B9921EA000066
:100940000B900E9800690D9901F00701890088400D
:100950000B9908430B900B980F990D9B02EA5302D9
:1009600011440862FFE70F9800680B900D98400053
:10097000032101FA00F00B9921EA00000B900E9878
:10098000406800F003000D99490088400B99084326
:100990000B900B980F9908600E98807980070028BB
:1009A00000F01A81FFE7FFE744F2F440C5F60200C9
:1009B000016841F002010160006800F00200099046
:1009C0000998FFE70D9820F0030040F20841C5F6B2
:1009D000000140580B900D9800F0030080000F219B
:1009E00001FA00F00B9921EA00000B900F9800210A
:1009F000C5F60201884203D1FFE7002008907AE0A3
:100A00000F9840F20041C5F60201884203D1FFE78A
:100A1000012007906CE00F9840F60001C5F6020136
:100A2000884203D1FFE7022006905EE00F9840F66F
:100A30000041C5F60201884203D1FFE7032005907B
:100A400050E00F9841F20001C5F60201884203D13F
:100A5000FFE70420049042E00F9841F20041C5F600
:100A60000201884203D1FFE70520039034E00F988C
:100A700041F60001C5F60201884203D1FFE70620D6
:100A8000029026E00F9841F60041C5F60201884227
:100A900003D1FFE70720019018E00F9842F2000110
:100AA000C5F60201884203D1FFE7082000900AE062
:100AB0000F9842F20041C5F602010A22884208BF9F
:100AC00009220092FFE700980190FFE70198029049
:100AD000FFE702980390FFE703980490FFE704986C
:100AE0000590FFE705980690FFE706980790FFE757
:100AF00007980890FFE708980D9901F00301890015
:100B000088400B9908430B900B980D9921F0030135
:100B100040F20842C5F6000288504FF0B04000682D
:100B20000B900C980B9921EA00000B900E9880799D
:100B3000C006002805D5FFE70C980B9908430B90D9
:100B4000FFE70B984FF0B04108600420C5F60000A5
:100B500000680B900C980B9921EA00000B900E98FE
:100B600080798006002805D5FFE70C980B9908438B
:100B70000B90FFE70B980421C5F6000108600A9866
:100B800040680B900C980B9921EA00000B900E988E
:100B900080798007002805D5FFE70C980B9908435A
:100BA0000B90FFE70B980A9948600A9800680B9031
:100BB0000C980B9921EA00000B900E988079C007E1
:100BC000002805D0FFE70C980B9908430B90FFE72E
:100BD0000B980A990860FFE7FFE70D9801300D9028
:100BE0007FE510B080BD000080B582B013468C4612
:100BF0000190ADF802108DF80120BDF80200002828
:100C000005D0FFE70020002801D1FFE708E047F604
:100C10009260C0F600004FF4D57107F0A1F8FFE72D
:100C20009DF80100002805D0FFE79DF8010001288C
:100C300001D1FFE708E047F69260C0F6000040F2FD
:100C4000AB1107F08DF8FFE79DF80100002805D0F3
:100C5000FFE7BDF802000199886105E0BDF80200D8
:100C6000000401998861FFE702B080BD0000000028
:100C700041F20000C5F600400068000C704700001B
:100C800040F25010C2F200400068704700000000BF
:100C900040F20800C2F20040007840F25011C2F267
:100CA00000410A681044086070470000000000001E
:100CB00080B582B0032000F027FB02F0A5FF44F2CC
:100CC0001841C5F602010A68C2F3032247F6AC5385
:100CD000C0F600039A5C02F01F02D040009000981A
:100CE000096801F00F01595C01F01F01C84040F292
:100CF0000401C2F200410860009840F20001C2F213
:100D0000004108600F2000F013F8002804D0FFE72E
:100D100001208DF8070005E000F08EFA00208DF824
:100D20000700FFE79DF8070002B080BD000000004B
:100D300080B590B00E900E980F2810D8FFE70E994E
:100D400019200022019000F0A7FA019800F088FA1B
:100D50000E9840F20C01C2F20041086003E001204D
:100D60008DF83F0046E0FFE744F2F040C5F6020090
:100D7000016841F001010160006800F0010002908B
:100D80000298FFE706A803A902F0A6FE02F028FFDA
:100D90004000059005984DF68361C4F21B31A0FB1D
:100DA00001014FF0FF3202EB9141049140F27001DA
:100DB000C2F200410022C4F201020A6040F2E732AE
:100DC000CA60049A4A6000220A618A60009008465C
:100DD00004F04AF8002809D1FFE740F27000C2F29F
:100DE000004004F0A9F98DF83F0003E001208DF8E0
:100DF0003F00FFE79DF83F0010B080BD00000000FD
:100E000080B582B001900198407800284BD0FFE770
:100E100001984078012846D0FFE7019840780228E1
:100E200041D0FFE70198407803283CD0FFE70198C4
:100E30004078042837D0FFE701984078052832D061
:100E4000FFE70198407806282DD0FFE70198407809
:100E5000072828D0FFE701984078082823D0FFE72B
:100E60000198407809281ED0FFE7019840780A28A9
:100E700019D0FFE7019840780B2814D0FFE70198BC
:100E800040780C280FD0FFE7019840780D280AD051
:100E9000FFE7019840780E2805D0FFE701984078D9
:100EA0000F2801D1FFE708E047F6E450C0F6000044
:100EB0004FF4967106F054FFFFE70198007801287F
:100EC00005D0FFE701980078002801D1FFE708E08E
:100ED00047F6E450C0F6000040F22D1106F040FF46
:100EE000FFE7019840784EF69851CEF20001086075
:100EF00001980078002800F06481FFE70198007BEA
:100F0000002805D0FFE70198007B012801D1FFE709
:100F100008E047F6E450C0F6000040F2351106F054
:100F20001FFFFFE70198C07A002819D0FFE701985A
:100F3000C07A012814D0FFE70198C07A02280FD0A8
:100F4000FFE70198C07A03280AD0FFE70198C07A2A
:100F5000052805D0FFE70198C07A062801D1FFE7F0
:100F600008E047F6E450C0F600004FF49B7106F02D
:100F7000F7FEFFE70198807A00280AD0FFE7019882
:100F8000807A012805D0FFE70198807A022801D1F4
:100F9000FFE708E047F6E450C0F6000040F23711E2
:100FA00006F0DEFEFFE70198407B012805D0FFE751
:100FB0000198407B002801D1FFE708E047F6E450A4
:100FC000C0F600004FF49C7106F0CAFEFFE70198DE
:100FD000807B012805D0FFE70198807B002801D1A4
:100FE000FFE708E047F6E450C0F6000040F2391190
:100FF00006F0B6FEFFE70198C07B012805D0FFE7A9
:101000000198C07B002801D1FFE708E047F6E450D3
:10101000C0F600004FF49D7106F0A2FEFFE70198B4
:10102000407AFE2801DCFFE708E047F6E450C0F60E
:10103000000040F23B1106F093FEFFE70198007AB2
:10104000042800F08980FFE70198007A052800F065
:101050008380FFE70198007A06287DD0FFE701989A
:10106000007A072878D0FFE70198007A082873D023
:10107000FFE70198007A09286ED0FFE70198007A0F
:101080000A2869D0FFE70198007A0B2864D0FFE7AF
:101090000198007A0C285FD0FFE70198007A0D28AC
:1010A0005AD0FFE70198007A0E2855D0FFE7019843
:1010B000007A0F2850D0FFE70198007A10284BD013
:1010C000FFE70198007A112846D0FFE70198007ADF
:1010D000122841D0FFE70198007A13283CD0FFE79F
:1010E0000198007A142837D0FFE70198007A152874
:1010F00032D0FFE70198007A16282DD0FFE701983B
:10110000007A172828D0FFE70198007A182823D002
:10111000FFE70198007A19281ED0FFE70198007AAE
:101120001A2819D0FFE70198007A1B2814D0FFE78E
:101130000198007A1C280FD0FFE70198007A1D283B
:101140000AD0FFE70198007A1E2805D0FFE7019832
:10115000007A1F2801D1FFE708E047F6E450C0F607
:1011600000004FF49E7106F0FBFDFFE70198406818
:101170004EF69C51CEF2000108600198017B0907F0
:10118000C27A41EA02610278037A90F809C090F8C5
:101190000AE041EACE4190F80DE041EA8E4190F834
:1011A0000EE041EA4E41C07B41EA004040EA0C209B
:1011B00040EA430010434EF6A051CEF20001086011
:1011C0000BE04EF69C50CEF20000002101604EF67E
:1011D000A050CEF200000160FFE702B080BD000029
:1011E000BFF35F8F4EF62450CEF20000016821F469
:1011F000803101604EF69450CEF200000021016073
:10120000704700000000000081B00090009840F09E
:1012100001004EF69451CEF2000108604EF62450C3
:10122000CEF20000016841F480310160BFF34F8FBE
:10123000BFF36F8F01B0704781B0FFE744F2F44015
:10124000C5F60200016841F002010160006800F08B
:10125000020000900098FFE701B070470000000016
:1012600080B582B00146ADF80600BDF90600002841
:1012700001D4FFE707E047F6E450C0F60000BD21C7
:1012800006F06EFDFFE7BDF9060006F001FD02B0B5
:1012900080BD00000000000080B586B00346ADF8B8
:1012A00016000491039203980F2801D8FFE707E086
:1012B00047F6E450C0F60000A92106F051FDFFE713
:1012C00004980F2801D8FFE707E047F6E450C0F67E
:1012D0000000AA2106F044FDFFE706F0F5FC0290AD
:1012E000BDF916000299049A039B01900846114625
:1012F0001A4604F019FE019900900846009906F07C
:10130000EBFC06B080BD000080B582B00190019872
:10131000072810D0FFE7019806280CD0FFE70198B6
:10132000052808D0FFE70198042804D0FFE70198BA
:10133000032801D1FFE707E047F6E450C0F60000BC
:10134000912106F00DFDFFE7019806F0E9FC02B0DF
:1013500080BD00000000000080B584B002900298BB
:10136000022804D0FFE70298012801D1FFE708E036
:1013700047F6CB60C0F600004FF49F7106F0F0FC1A
:10138000FFE744F60C00C5F60200006800F0040018
:101390000021B1EB900F13D1FFE744F60C00C5F626
:1013A0000200006800F007000299884204D0FFE7BD
:1013B00001208DF80F002EE000208DF80F002AE0AC
:1013C00044F60C00C5F60200016821F00701029AFC
:1013D00011430160FFF754FC0190FFE744F604005D
:1013E000C5F60200006800F400500021B1EB503F48
:1013F0000DD1FFE7FFF744FC0199401AB0F57A7F61
:1014000004D9FFE701208DF80F0004E0E6E7002093
:101410008DF80F00FFE79DF80F0004B080BD0000BD
:1014200080B502F09DFB44F22041C5F60201096837
:10143000C1F3021147F6AC52C0F60002515C01F054
:101440001F01C84080BD000088B0079044F22840CA
:10145000C5F60200016801F0030106910068C0F3BF
:101460000530059044F22C40C5F602000068C0F338
:1014700000100490049844F23C41C5F6020109684A
:1014800089B2C908484300EE100AB8EE400A8DED53
:10149000020A0598002800F01D81FFE70698002841
:1014A000009009D0FFE7009801286AD0FFE7009874
:1014B000022800F08A80ACE044F20040C5F6020049
:1014C000006800F020000021B1EB501F34D0FFE78E
:1014D00044F20040C5F602000068C0F3C10049F2C2
:1014E0000001C0F2D03121FA00F003909DED030A13
:1014F000B8EE400A9DED051AB8EE411A80EE010AD9
:1015000044F23840C5F6020000686FF35F2001EE38
:10151000100AB8EE411A9DED022A9FED743A82EE50
:10152000032A31EE021AB7EE002A31EE021A20EE3B
:10153000010A8DED010A23E09DED050AB8EE400A8F
:101540009FED6C1A81EE000A44F23840C5F60200A5
:1015500000686FF35F2001EE100AB8EE411A9DEDAE
:10156000022A9FED623A82EE032A31EE021AB7EEAA
:10157000002A31EE021A20EE010A8DED010AFFE782
:101580006BE09DED050AB8EE400A9FED591A81EE19
:10159000000A44F23840C5F6020000686FF35F208D
:1015A00001EE100AB8EE411A9DED022A9FED4F3A66
:1015B00082EE032A31EE021AB7EE002A31EE021A49
:1015C00020EE010A8DED010A47E09DED050AB8EE17
:1015D000400A9FED451A81EE000A44F23840C5F6F4
:1015E000020000686FF35F2001EE100AB8EE411AA6
:1015F0009DED022A9FED3D3A82EE032A31EE021A5A
:10160000B7EE002A31EE021A20EE010A8DED010A32
:1016100023E09DED050AB8EE400A9FED351A81EEF4
:10162000000A44F23840C5F6020000686FF35F20FC
:1016300001EE100AB8EE411A9DED022A9FED2B3AF9
:1016400082EE032A31EE021AB7EE002A31EE021AB8
:1016500020EE010A8DED010AFFE79DED010A44F23B
:101660003840C5F60200016889B2490A01EE101A35
:10167000B8EE411AB7EE002A31EE021A80EE010AE6
:101680000799BCEEC00A81ED000A9DED010A0168D0
:10169000C1F3064101EE101AB8EE411A31EE021AFA
:1016A00080EE010A0799BCEEC00A81ED010A9DEDAA
:1016B000010A0068C0F3066001EE100AB8EE411A94
:1016C00031EE021A80EE010A0798BCEEC00A80EDE6
:1016D000020A07E007980021016007984160079817
:1016E0008160FFE708B0704720BCBE4B0000004699
:1016F0000024744A0024744C88B0079044F22840B7
:10170000C5F60200016801F0030106910068C0F30C
:101710000550059044F22C40C5F602000068C0F365
:1017200000200490049844F24441C5F6020109687F
:1017300089B2C908484300EE100AB8EE400A8DEDA0
:10174000020A0598002800F01D81FFE7069800288E
:10175000009009D0FFE7009801286AD0FFE70098C1
:10176000022800F08A80ACE044F20040C5F6020096
:10177000006800F020000021B1EB501F34D0FFE7DB
:1017800044F20040C5F602000068C0F3C10049F20F
:101790000001C0F2D03121FA00F003909DED030A60
:1017A000B8EE400A9DED051AB8EE411A80EE010A26
:1017B00044F24040C5F6020000686FF35F2001EE7E
:1017C000100AB8EE411A9DED022A9FED743A82EE9E
:1017D000032A31EE021AB7EE002A31EE021A20EE89
:1017E000010A8DED010A23E09DED050AB8EE400ADD
:1017F0009FED6C1A81EE000A44F24040C5F60200EB
:1018000000686FF35F2001EE100AB8EE411A9DEDFB
:10181000022A9FED623A82EE032A31EE021AB7EEF7
:10182000002A31EE021A20EE010A8DED010AFFE7CF
:101830006BE09DED050AB8EE400A9FED591A81EE66
:10184000000A44F24040C5F6020000686FF35F20D2
:1018500001EE100AB8EE411A9DED022A9FED4F3AB3
:1018600082EE032A31EE021AB7EE002A31EE021A96
:1018700020EE010A8DED010A47E09DED050AB8EE64
:10188000400A9FED451A81EE000A44F24040C5F639
:10189000020000686FF35F2001EE100AB8EE411AF3
:1018A0009DED022A9FED3D3A82EE032A31EE021AA7
:1018B000B7EE002A31EE021A20EE010A8DED010A80
:1018C00023E09DED050AB8EE400A9FED351A81EE42
:1018D000000A44F24040C5F6020000686FF35F2042
:1018E00001EE100AB8EE411A9DED022A9FED2B3A47
:1018F00082EE032A31EE021AB7EE002A31EE021A06
:1019000020EE010A8DED010AFFE79DED010A44F288
:101910004040C5F60200016889B2490A01EE101A7A
:10192000B8EE411AB7EE002A31EE021A80EE010A33
:101930000799BCEEC00A81ED000A9DED010A01681D
:10194000C1F3064101EE101AB8EE411A31EE021A47
:1019500080EE010A0799BCEEC00A81ED010A9DEDF7
:10196000010A0068C0F3066001EE100AB8EE411AE1
:1019700031EE021A80EE010A0798BCEEC00A80ED33
:10198000020A07E007980021016007984160079864
:101990008160FFE708B0704720BCBE4B00000046E6
:1019A0000024744A0024744C80B59AB0189000202A
:1019B0008DF857008DF856001898C0780007002859
:1019C0004AD5FFE71898806E002814900FD0FFE7E3
:1019D0001498B0F5801F13D0FFE71498B0F5001FDE
:1019E00016D0FFE71498B0F5401F19D019E044F263
:1019F0002C40C5F60200016841F40031016014E09A
:101A000018980830022104F0CBFA8DF857000CE04A
:101A100018982830022104F04FFC8DF8570004E09C
:101A200003E001208DF85700FFE79DF857000028DC
:101A30000CD1FFE744F25040C5F60200016821F4E2
:101A40004011189A926E1143016004E09DF857000E
:101A50008DF85600FFE7FFE718984078C007002888
:101A600041D0FFE71898806D0428139020D813996F
:101A7000DFE801F0030C141C1D0044F22C40C5F6F5
:101A80000200016841F40031016015E01898083047
:101A9000002104F085FA8DF857000DE018982830E1
:101AA000002104F009FC8DF8570005E004E003E094
:101AB00001208DF85700FFE79DF8570000280CD152
:101AC000FFE744F25040C5F60200016821F007012B
:101AD000189A926D1143016004E09DF857008DF84B
:101AE0005600FFE7FFE718984078800700284DD59B
:101AF000FFE71898C06D0028129011D0FFE71298E8
:101B0000402816D0FFE7129880281AD0FFE71298D5
:101B1000C0281ED0FFE71298B0F5807F1AD01AE0D7
:101B200044F22C40C5F60200016841F40031016026
:101B300015E018980830002104F032FA8DF85700AB
:101B40000DE018982830002104F0B6FB8DF85700FE
:101B500005E004E003E001208DF85700FFE79DF861
:101B6000570000280CD1FFE744F25040C5F60200B0
:101B7000016821F4E071189AD26D1143016004E00C
:101B80009DF857008DF85600FFE7FFE7189840785A
:101B90004007002852D5FFE71898D0F8A800002881
:101BA000119014D0FFE71198B0F5001F18D0FFE78F
:101BB0001198B0F5800F1BD0FFE71198B0F5C00F5A
:101BC0001ED0FFE71198B0F5000F1AD01AE044F2CA
:101BD0002C40C5F60200016841F40031016015E0B7
:101BE00018980830002104F0DBF98DF857000DE05B
:101BF00018982830002104F05FFB8DF8570005E0AD
:101C000004E003E001208DF85700FFE79DF857003E
:101C100000280DD1FFE744F25840C5F602000168E4
:101C200021F46001189AD2F8A8201143016004E061
:101C30009DF857008DF85600FFE7FFE718984078A9
:101C40000007002852D5FFE71898D0F8AC0000280C
:101C5000109014D0FFE71098B0F1807F18D0FFE704
:101C60001098B0F1007F1BD0FFE71098B0F1407FD3
:101C70001ED0FFE71098B0F1806F1AD01AE044F23E
:101C80002C40C5F60200016841F40031016015E006
:101C900018980830002104F083F98DF857000DE002
:101CA00018982830002104F007FB8DF8570005E054
:101CB00004E003E001208DF85700FFE79DF857008E
:101CC00000280DD1FFE744F25840C5F60200016834
:101CD00021F0E061189AD2F8AC201143016004E0D1
:101CE0009DF857008DF85600FFE7FFE71898C07879
:101CF0008007002840D5FFE71898C06C00280F9097
:101D00001ED0FFE70F98102808D0FFE70F98202873
:101D10000DD0FFE70F98302811D012E044F22C408C
:101D2000C5F60200016841F4003101600DE0189829
:101D30000830022104F034F98DF8570005E004E082
:101D400003E001208DF85700FFE79DF857000028B9
:101D50000CD1FFE744F24C40C5F60200016821F0C7
:101D60003001189AD26C1143016004E09DF85700CD
:101D70008DF85600FFE7FFE718984078C006002866
:101D800050D5FFE71898006E00280E9014D0FFE79A
:101D90000E98B0F5805F18D0FFE70E98B0F5005FA1
:101DA0001BD0FFE70E98B0F5405F1ED0FFE70E98FE
:101DB000B0F5804F1AD01AE044F22C40C5F602006C
:101DC000016841F40031016015E0189808300021E5
:101DD00004F0E6F88DF857000DE01898283000213F
:101DE00004F06AFA8DF8570005E004E003E00120F2
:101DF0008DF85700FFE79DF8570000280CD1FFE74A
:101E000044F25040C5F60200016821F4E041189AFE
:101E1000126E1143016004E09DF857008DF85600E2
:101E2000FFE7FFE718984078800600284ED5FFE7C7
:101E30001898406E00280D9019D0FFE70D98B0F566
:101E4000803F15D0FFE70D98B0F5003F18D0FFE7B1
:101E50000D98B0F5403F1BD0FFE70D98B0F5802FEF
:101E600017D0FFE70D98B0F5A02F13D013E016E0C0
:101E700018980830012104F093F88DF857000EE00F
:101E800018982830012104F017FA8DF8570006E061
:101E900005E004E003E001208DF85700FFE79DF81E
:101EA000570000280CD1FFE744F25040C5F602006D
:101EB000016821F4E021189A526E1143016004E098
:101EC0009DF857008DF85600FFE7FFE71898407817
:101ED0004006002850D5FFE71898D0F8B000002839
:101EE0000C9019D0FFE70C98B0F1805F15D0FFE798
:101EF0000C98B0F1005F18D0FFE70C98B0F1405F8C
:101F00001BD0FFE70C98B0F1804F17D0FFE70C987B
:101F1000B0F1A04F13D013E016E01898083001215B
:101F200004F03EF88DF857000EE018982830012193
:101F300004F0C2F98DF8570006E005E004E003E084
:101F400001208DF85700FFE79DF8570000280DD1BC
:101F5000FFE744F25840C5F60200016821F0E04175
:101F6000189AD2F8B0201143016004E09DF85700A0
:101F70008DF85600FFE7FFE7189840780006002824
:101F80003DD5FFE71898006F00280B901BD0FFE7A6
:101F90000B98B0F1805F05D0FFE70B98B0F1005FC0
:101FA00009D011E044F22C40C5F60200016841F46A
:101FB000003101600CE018980830012103F0F0FFB7
:101FC0008DF8570004E003E001208DF85700FFE78B
:101FD0009DF8570000280CD1FFE744F25040C5F6A9
:101FE0000200016821F04051189A126F11430160FC
:101FF00004E09DF857008DF85600FFE7FFE71898BA
:10200000C078C007002838D0FFE71898806C0328F4
:102010000A9017D80A99DFE801F014020B1344F272
:102020002C40C5F60200016841F4003101600DE06A
:1020300018980830022103F0B3FF8DF8570005E02F
:1020400004E003E001208DF85700FFE79DF85700FA
:1020500000280CD1FFE744F24C40C5F602000168AD
:1020600021F00301189A926C1143016004E09DF87D
:1020700057008DF85600FFE7FFE718988078400674
:10208000002840F14483FFE71898D0F8B400B0F579
:10209000807F00F07C82FFE71898D0F8B400B0F59C
:1020A000007F00F07482FFE71898D0F8B400B0F514
:1020B0000C5F00F06C82FFE71898D0F8B400B0F520
:1020C0004C5F00F06482FFE71898D0F8B400B0F5D8
:1020D000864F00F05C82FFE71898D0F8B400B0F5A6
:1020E000A64F00F05482FFE71898D0F8B400B0F57E
:1020F000C64F00F04C82FFE71898D0F8B400B0F556
:10210000E64F00F04482FFE71898D0F8B400B0F52D
:10211000034F00F03C82FFE71898D0F8B400B0F508
:10212000134F00F03482FFE71898D0F8B400B0F5F0
:10213000234F00F02C82FFE71898D0F8B400B0F5D8
:10214000334F00F02482FFE71898D0F8B400B0F5C0
:10215000434F00F01C82FFE71898D0F8B400B0F5A8
:10216000534F00F01482FFE71898D0F8B400B0F590
:10217000634F00F00C82FFE71898D0F8B400B0F578
:10218000734F00F00482FFE71898D0F8B40040F2D3
:102190000031C0F20101884200F0F981FFE7189890
:1021A000D0F8B40041F20031C0F20101884200F0E1
:1021B000EE81FFE71898D0F8B40042F20031C0F287
:1021C0000101884200F0E381FFE71898D0F8B400DD
:1021D00043F20031C0F20101884200F0D881FFE7EC
:1021E0001898D0F8B40044F20031C0F201018842DE
:1021F00000F0CD81FFE71898D0F8B40045F2003127
:10220000C0F20101884200F0C281FFE71898D0F8BF
:10221000B40046F20031C0F20101884200F0B781FB
:10222000FFE71898D0F8B40047F20031C0F201017E
:10223000884200F0AC81FFE71898D0F8B40048F26B
:102240000031C0F20101884200F0A181FFE7189837
:10225000D0F8B40049F20031C0F20101884200F028
:102260009681FFE71898D0F8B4004AF20031C0F226
:102270000101884200F08B81FFE71898D0F8B40084
:102280004BF20031C0F20101884200F08081FFE78B
:102290001898D0F8B4004CF20031C0F20101884225
:1022A00000F07581FFE71898D0F8B4004DF20031C6
:1022B000C0F20101884200F06A81FFE71898D0F867
:1022C000B4004EF20031C0F20101884200F05F819B
:1022D000FFE71898D0F8B4004FF20031C0F20101C6
:1022E000884200F05481FFE71898D0F8B40040F21B
:1022F0000031C0F20201884200F04981FFE71898DE
:10230000D0F8B40041F20031C0F20201884200F07E
:102310003E81FFE71898D0F8B40042F20031C0F2D5
:102320000201884200F03381FFE71898D0F8B4002A
:1023300043F20031C0F20201884200F02881FFE739
:102340001898D0F8B40044F20031C0F2020188427B
:1023500000F01D81FFE71898D0F8B40045F2003175
:10236000C0F20201884200F01281FFE71898D0F80D
:10237000B40046F20031C0F20201884200F0078149
:10238000FFE71898D0F8B40047F20031C0F202011C
:10239000884200F0FC80FFE71898D0F8B40048F2BB
:1023A0000031C0F20201884200F0F180FFE7189886
:1023B000D0F8B40049F20031C0F20201884200F0C6
:1023C000E680FFE71898D0F8B4004AF20031C0F276
:1023D0000201884200F0DB80FFE71898D0F8B400D3
:1023E0004BF20031C0F20201884200F0D080FFE7DA
:1023F0001898D0F8B4004CF20031C0F202018842C3
:1024000000F0C580FFE71898D0F8B4004DF2003115
:10241000C0F20201884200F0BA80FFE71898D0F8B5
:10242000B4004EF20031C0F20201884200F0AF80E9
:10243000FFE71898D0F8B4004FF20031C0F2020163
:10244000884200F0A480FFE71898D0F8B40040F26A
:102450000031C0F20301884200F09980FFE718982C
:10246000D0F8B40041F20031C0F20301884200F01C
:102470008E80FFE71898D0F8B40042F20031C0F225
:102480000301884200F08380FFE71898D0F8B40079
:1024900043F20031C0F20301884278D0FFE7189878
:1024A000D0F8B40044F20031C0F2030188426ED08B
:1024B000FFE71898D0F8B40045F20031C0F20301EC
:1024C000884264D0FFE71898D0F8B40046F2003193
:1024D000C0F2030188425AD0FFE71898D0F8B40040
:1024E00047F20031C0F20301884250D0FFE718984C
:1024F000D0F8B40048F20031C0F20301884246D05F
:10250000FFE71898D0F8B40049F20031C0F2030197
:1025100088423CD0FFE71898D0F8B4004AF2003166
:10252000C0F20301884232D0FFE71898D0F8B40017
:102530004BF20031C0F20301884228D0FFE718981F
:10254000D0F8B4004CF20031C0F2030188421ED032
:10255000FFE71898D0F8B4004DF20031C0F2030143
:10256000884214D0FFE71898D0F8B4004EF200313A
:10257000C0F2030188420AD0FFE71898D0F8B400EF
:102580004FF20031C0F20301884201D1FFE708E0B9
:1025900047F65760C0F6000040F27D3105F0E0FBE1
:1025A000FFE744F60000C5F60200016841F48071BF
:1025B0000160FEF765FB1690FFE744F60000C5F6E4
:1025C00002000068C00500280CD4FFE7FEF758FBA6
:1025D0001699401A652804D3FFE703208DF85700A9
:1025E00000E0EAE79DF85700002840F08A80FFE706
:1025F00044F27040C5F60200006800F4407018997B
:10260000D1F8B41001F44071884213D0FFE744F2CE
:102610007040C5F60200016821F44071179101680D
:1026200041F480310160016821F480310160179923
:102630000160FFE71898D0F8B400B0F5807F1FD193
:10264000FFE7FEF71DFB1690FFE744F27040C5F66A
:102650000200006800F002000021B1EB500F0ED123
:10266000FFE7FEF70DFB1699401A41F289318842C7
:1026700004D3FFE703208DF8570000E0E5E7FFE70C
:102680009DF85700002836D1FFE7FFE71898D0F8EB
:10269000B40000F44070B0F5407F14D1FFE744F27D
:1026A0001040C5F60200016821F47C51189AD2F856
:1026B000B4204FF6F043C0F6FF731A4041EA1211FE
:1026C0000A46016009E044F21040C5F602000168C4
:1026D00021F47C510A460160FFE71898D0F8B40055
:1026E0006FF31F3044F27041C5F602010A681043CF
:1026F0000860FFE704E09DF857008DF85600FFE7FB
:1027000004E09DF857008DF85600FFE7FFE71898A2
:102710000068C007002800F04D80FFE71898C06FE0
:10272000282809902BD80999DFE801F015292929D3
:102730002929292916292929292929291E29292927
:1027400029292929262929292929292927292929FE
:1027500029292929280016E018980830012103F0BA
:102760001FFC8DF857000EE018982830012103F067
:10277000A3FD8DF8570006E005E004E003E001202A
:102780008DF85700FFE79DF8570000280CD1FFE7B0
:1027900044F25440C5F60200016821F03801189A4D
:1027A000D26F1143016004E09DF857008DF8560088
:1027B000FFE7FFE718980078800700283AD5FFE781
:1027C0001898806F0528089019D80899DFE801F05B
:1027D00003040C14151616E018980830012103F0B4
:1027E000DFFB8DF857000EE018982830012103F028
:1027F00063FD8DF8570006E005E004E003E00120EA
:102800008DF85700FFE79DF8570000280CD1FFE72F
:1028100044F25440C5F60200016821F00701189AFD
:10282000926F1143016004E09DF857008DF8560047
:10283000FFE7FFE718980078400700283CD5FFE73E
:102840001898D0F894000528079019D80799DFE860
:1028500001F003040C14151616E018980830012135
:1028600003F09EFB8DF857000EE0189828300121E8
:1028700003F022FD8DF8570006E005E004E003E0D8
:1028800001208DF85700FFE79DF8570000280DD173
:10289000FFE744F25840C5F60200016821F0070145
:1028A000189AD2F894201143016004E09DF8570073
:1028B0008DF85600FFE7FFE718980078800600289B
:1028C00050D5FFE71898D0F890000028069019D04E
:1028D000FFE70698B0F1805F15D0FFE70698B0F1EA
:1028E000005F18D0FFE70698B0F1405F1BD0FFE70C
:1028F0000698B0F1804F17D0FFE70698B0F1A04FCF
:1029000013D013E016E018980830002103F048FBBC
:102910008DF857000EE018982830022103F0CCFC07
:102920008DF8570006E005E004E003E001208DF893
:102930005700FFE79DF8570000280DD1FFE744F24C
:102940005440C5F60200016821F0E041189AD2F81F
:1029500090201143016004E09DF857008DF8560067
:10296000FFE7FFE7189800784006002850D5FFE7FA
:102970001898D0F89C000028059019D0FFE705981A
:10298000B0F5806F15D0FFE70598B0F5006F18D04F
:10299000FFE70598B0F5406F1BD0FFE70598B0F54D
:1029A000805F17D0FFE70598B0F5A05F13D013E064
:1029B00016E018980830002103F0F2FA8DF857005D
:1029C0000EE018982830022103F076FC8DF85700AD
:1029D00006E005E004E003E001208DF85700FFE782
:1029E0009DF8570000280DD1FFE744F25840C5F686
:1029F0000200016821F4E051189AD2F89C2011439A
:102A0000016004E09DF857008DF85600FFE7FFE7EE
:102A1000189800780006002850D5FFE71898D0F8DD
:102A2000A0000028049019D0FFE70498B0F5005FDB
:102A300015D0FFE70498B0F5804F18D0FFE7049851
:102A4000B0F5C04F1BD0FFE70498B0F5004F17D08A
:102A5000FFE70498B0F5204F13D013E016E0189864
:102A60000830002103F09CFA8DF857000EE018980A
:102A70002830022103F020FC8DF8570006E005E025
:102A800004E003E001208DF85700FFE79DF85700B0
:102A900000280DD1FFE744F25840C5F60200016856
:102AA00021F46041189AD2F8A0201143016004E09B
:102AB0009DF857008DF85600FFE7FFE7189800785B
:102AC0000007002846D5FFE71898D0F88400B0F535
:102AD000805F14D0FFE71898D0F88400B0F5005F4D
:102AE0000DD0FFE71898D0F88400002807D0FFE742
:102AF0001898D0F88400B0F5405F01D1FFE708E0F6
:102B000047F65760C0F6000040F20D5105F028F975
:102B1000FFE71898D0F88400B0F5805F0DD1FFE78B
:102B200018982830022103F0C7FB002804D0FFE7E3
:102B300001208DF85600FFE7FFE744F25440C5F648
:102B40000200016821F44051189AD2F88420114300
:102B50000160FFE718980078C006002846D5FFE717
:102B60001898D0F89800B0F5807F14D0FFE7189837
:102B7000D0F89800B0F5007F0DD0FFE71898D0F896
:102B80009800002807D0FFE71898D0F89800B0F513
:102B9000407F01D1FFE708E047F65760C0F600002C
:102BA0004FF4A46105F0DCF8FFE71898D0F898001E
:102BB000B0F5807F0DD1FFE718982830022103F08F
:102BC0007BFB002804D0FFE701208DF85600FFE7CB
:102BD000FFE744F25840C5F60200016821F4407155
:102BE000189AD2F8982011430160FFE7189880786E
:102BF000000700283ED5FFE71898D0F8A400002869
:102C000003900AD0FFE70398B0F5803F0DD0FFE7AF
:102C10000398B0F5003F10D010E01898083000215C
:102C200003F0BEF98DF857000CE018982830022107
:102C300003F042FB8DF8570004E003E001208DF81B
:102C40005700FFE79DF8570000280DD1FFE744F239
:102C50005840C5F60200016821F44031189AD2F8B4
:102C6000A4201143016004E09DF857008DF8560040
:102C7000FFE7FFE7189880784007002840D5FFE776
:102C80001898D0F88800B0F5801F02900AD0FFE7AE
:102C90000298B0F5001F0ED0FFE70298B0F5401F74
:102CA00011D011E044F22C40C5F60200016841F455
:102CB000003101600CE018982830012103F0FCFA83
:102CC0008DF8570004E003E001208DF85700FFE77E
:102CD0009DF8570000280DD1FFE744F25440C5F697
:102CE0000200016821F44011189AD2F8882011439B
:102CF000016004E09DF857008DF85600FFE7FFE7FC
:102D000018988078C00700284CD0FFE71898006D0D
:102D1000002806D0FFE71898006DB0F5803F01D17C
:102D2000FFE708E047F65760C0F6000040F2865122
:102D300005F016F8FFE71898006D0028019005D0FF
:102D4000FFE70198B0F5803F09D010E044F22C4035
:102D5000C5F60200016841F4003101600BE01898EB
:102D60000830022103F01CF98DF8570003E0012020
:102D70008DF85700FFE79DF8570000280CD1FFE7BA
:102D800044F24C40C5F60200016821F48031189AE3
:102D9000126D1143016004E09DF857008DF8560054
:102DA000FFE7FFE71898C078800600280DD5FFE7F9
:102DB00018982830022103F07FFA002804D0FFE79A
:102DC00001208DF85600FFE7FFE71898807880070C
:102DD00000283ED5FFE71898D0F880000028009022
:102DE0001AD0FFE70098B0F5807F0AD0FFE700987F
:102DF000B0F5007F0ED0FFE70098B0F5407F0AD015
:102E00000BE044F22C40C5F60200016841F40031A9
:102E1000016006E005E004E003E001208DF85700C2
:102E2000FFE79DF8570000280DD1FFE744F254401A
:102E3000C5F60200016821F44071189AD2F880208A
:102E40001143016004E09DF857008DF85600FFE73C
:102E5000FFE718988078C006002821D5FFE718986A
:102E6000406F002806D0FFE71898406FB0F1004F80
:102E700001D1FFE708E047F65760C0F6000040F2D6
:102E8000E55104F06DFFFFE744F25040C5F6020043
:102E9000016821F00041189A526F11430160FFE769
:102EA0001898C078C006002824D5FFE71898D0F8F5
:102EB000B800002807D0FFE71898D0F8B800B0F5A0
:102EC000804F01D1FFE708E047F65760C0F60000E9
:102ED00040F2EF5104F044FFFFE744F21040C5F622
:102EE0000200016821F48041189AD2F8B8201143F9
:102EF0000160FFE7189880788006002821D5FFE759
:102F00001898C06E002806D0FFE71898C06EB0F180
:102F1000807F01D1FFE708E047F65760C0F6000068
:102F200040F2F95104F01CFFFFE744F25040C5F6AF
:102F30000200016821F08071189AD26E114301607D
:102F4000FFE71898C0784006002828D5FFE71898B2
:102F5000D0F8BC00002807D0FFE71898D0F8BC00D4
:102F6000B0F5004F01D1FFE708E047F65760C0F623
:102F7000000040F20F6104F0F3FEFFE7FFE744F2C8
:102F80001040C5F60200016821F400410160189963
:102F9000D1F8BC10026811430160FFE7FFE7189801
:102FA000C0780006002827D5FFE71898406D002854
:102FB0000CD0FFE71898406DB0F1805F06D0FFE7B6
:102FC0001898406DB0F1005F01D1FFE708E047F6C7
:102FD0005760C0F6000040F2196104F0C1FEFFE73F
:102FE00044F24C40C5F60200016821F04051189AA5
:102FF000526D11430160FFE71898807800060028A1
:103000002BD5FFE71898D0F88C0000280ED0FFE7EA
:103010001898D0F88C00B0F5800F07D0FFE718980B
:10302000D0F88C00B0F5000F01D1FFE708E047F6BB
:103030005760C0F6000040F2236104F091FEFFE704
:1030400044F25440C5F60200016821F44001189A88
:10305000D2F88C2011430160FFE718980079C0076F
:10306000002813D0FFE718980830002102F098FFDD
:103070008DF857009DF85700002801D1FFE704E0C4
:103080009DF857008DF85600FFE7FFE71898007984
:103090008007002813D5FFE718980830012102F0B7
:1030A0007FFF8DF857009DF85700002801D1FFE7FA
:1030B00004E09DF857008DF85600FFE7FFE71898E9
:1030C00000794007002813D5FFE71898083002213F
:1030D00002F066FF8DF857009DF85700002801D1D7
:1030E000FFE704E09DF857008DF85600FFE7FFE783
:1030F000189800790007002813D5FFE718982830A2
:10310000002103F0D9F88DF857009DF857000028EA
:1031100001D1FFE704E09DF857008DF85600FFE766
:10312000FFE718980079C006002813D5FFE7189824
:103130002830012103F0C0F88DF857009DF85700A2
:10314000002801D1FFE704E09DF857008DF85600F4
:10315000FFE7FFE7189800798006002813D5FFE7FE
:1031600018982830022103F0A7F88DF857009DF831
:103170005700002801D1FFE704E09DF857008DF8C3
:103180005600FFE7FFE79DF85600002804D1FFE74F
:1031900000208DF8670003E001208DF86700FFE74D
:1031A0009DF867001AB080BD80B586B00490039189
:1031B0000498002805D1FFE701208DF8170000F0E2
:1031C00087BC04980068002806D0FFE704980068D0
:1031D0003F2801D8FFE708E047F61F60C0F600006F
:1031E00040F2A73104F0BCFDFFE7039800283CD073
:1031F000FFE70398012838D0FFE70398022834D06E
:10320000FFE70398032830D0FFE7039804282CD069
:10321000FFE70398052828D0FFE70398062824D065
:10322000FFE70398072820D0FFE7039808281CD061
:10323000FFE70398092818D0FFE703980A2814D05D
:10324000FFE703980B2810D0FFE703980C280CD059
:10325000FFE703980D2808D0FFE703980E2804D055
:10326000FFE703980F2801D1FFE708E047F61F604A
:10327000C0F600004FF46A7104F072FDFFE7039896
:1032800042F20001C5F20021096801F00F018842F5
:1032900017D9FFE742F20000C5F20020016821F0D3
:1032A0000F01039A11430160006800F00F000399B9
:1032B000884205D0FFE701208DF8170000F008BC18
:1032C000FFE704980078400700283CD5FFE7049802
:1032D000006944F21841C5F60201096801F0700165
:1032E00088422FD9FFE704980069002814D0FFE72F
:1032F0000498006940280FD0FFE70498006950281F
:103300000AD0FFE704980069602805D0FFE7049819
:103310000069702801D1FFE708E047F61F60C0F69A
:1033200000004FF4717104F01BFDFFE744F21840F8
:10333000C5F60200016821F07001049A1269114378
:103340000160FFE7FFE704980078000700283CD5FC
:10335000FFE70498406944F21C41C5F60201096880
:1033600001F0700188422FD9FFE7049840690028D6
:1033700014D0FFE70498406940280FD0FFE7049875
:10338000406950280AD0FFE704984069602805D0BA
:10339000FFE704984069702801D1FFE708E047F68D
:1033A0001F60C0F6000040F2D63104F0D9FCFFE700
:1033B00044F21C40C5F60200016821F07001049A35
:1033C000526911430160FFE7FFE704980078C006E7
:1033D000002840D5FFE70498806944F21C41C5F6F7
:1033E0000201096801F4E061884233D9FFE70498DB
:1033F0008069002818D0FFE704988069B0F5806FD5
:1034000012D0FFE704988069B0F5A06F0CD0FFE7F9
:1034100004988069B0F5C06F06D0FFE70498806912
:10342000B0F5E06F01D1FFE708E047F61F60C0F696
:10343000000040F2E73104F093FCFFE744F21C4047
:10344000C5F60200016821F4E061049A9269114313
:103450000160FFE7FFE704980078800600283CD56C
:10346000FFE70498C06944F22041C5F602010968EB
:1034700001F0700188422FD9FFE70498C069002845
:1034800014D0FFE70498C06940280FD0FFE70498E4
:10349000C06950280AD0FFE70498C069602805D0A9
:1034A000FFE70498C069702801D1FFE708E047F6FC
:1034B0001F60C0F6000040F2F93104F051FCFFE754
:1034C00044F22040C5F60200016821F07001049A20
:1034D000D26911430160FFE7FFE704980078800795
:1034E000002850D5FFE70498C06844F21841C5F69B
:1034F0000201096801F00F01884243D9FFE70498EF
:10350000C068002828D0FFE70498C068082823D0A6
:10351000FFE70498C06809281ED0FFE70498C06838
:103520000A2819D0FFE70498C0680B2814D0FFE7D9
:103530000498C0680C280FD0FFE70498C0680D28D5
:103540000AD0FFE70498C0680E2805D0FFE704986A
:10355000C0680F2801D1FFE708E047F61F60C0F6FA
:10356000000040F20C4104F0FBFBFFE744F218407E
:10357000C5F60200016821F00F01049AD2681143D8
:103580000160FFE7FFE704980078C007002800F01B
:10359000E980FFE704988068002830D0FFE70498AE
:1035A0008068B0F5006F2AD0FFE704988068B0F516
:1035B000106F24D0FFE704988068B0F5206F1ED00C
:1035C000FFE704988068B0F5306F18D0FFE70498E3
:1035D0008068B0F5406F12D0FFE704988068B0F5BE
:1035E000506F0CD0FFE704988068B0F5606F06D08C
:1035F000FFE704988068B0F5706F01D1FFE708E03D
:1036000047F61F60C0F6000040F21C4104F0A8FB22
:10361000FFE70498406801280FD0FFE7049840684E
:1036200000280AD0FFE704984068022805D0FFE789
:1036300004984068032801D1FFE708E047F61F60BF
:10364000C0F6000040F21D4104F08AFBFFE744F29F
:103650001840C5F60200016821F47061049A92686E
:103660001143016004984068022811D1FFE744F239
:103670000040C5F60200006800F400300021B1EB04
:10368000504F04D1FFE701208DF8170020E23EE003
:1036900004984068032811D1FFE744F20040C5F6C2
:1036A0000200006800F000700021B1EB506F04D1FF
:1036B000FFE701208DF817000AE227E00498406830
:1036C000012811D1FFE744F20040C5F6020000686E
:1036D00000F480700021B1EB102F04D1FFE701202E
:1036E0008DF81700F4E110E044F20040C5F6020046
:1036F000006800F004000021B1EB900F04D1FFE757
:1037000001208DF81700E3E1FFE7FFE7FFE744F250
:103710001040C5F60200016821F00701049A5268C2
:1037200011430160FDF7ACFA0190FFE744F210404D
:10373000C5F60200006800F0380004994968B0EB53
:10374000C10F0ED0FFE7FDF79BFA0199401A41F235
:103750008931884204D3FFE703208DF81700B7E1D1
:10376000E4E7FFE7049800788007002850D5FFE7DA
:103770000498C06844F21841C5F60201096801F0D6
:103780000F01884243D2FFE70498C068002828D080
:10379000FFE70498C068082823D0FFE70498C068B2
:1037A00009281ED0FFE70498C0680A2819D0FFE74F
:1037B0000498C0680B2814D0FFE70498C0680C2850
:1037C0000FD0FFE70498C0680D280AD0FFE70498DF
:1037D000C0680E2805D0FFE70498C0680F2801D103
:1037E000FFE708E047F61F60C0F6000040F25E41C8
:1037F00004F0B6FAFFE744F21840C5F6020001688B
:1038000021F00F01049AD26811430160FFE7FFE73E
:10381000039842F20001C5F20021096801F00F018E
:10382000884216D2FFE742F20000C5F2002001688C
:1038300021F00F01039A11430160006800F00F00AE
:103840000399884204D0FFE701208DF817003FE17B
:10385000FFE704980078400700283CD5FFE704986C
:10386000006944F21841C5F60201096801F07001CF
:1038700088422FD2FFE704980069002814D0FFE7A0
:103880000498006940280FD0FFE704980069502889
:103890000AD0FFE704980069602805D0FFE7049884
:1038A0000069702801D1FFE708E047F61F60C0F605
:1038B000000040F27F4104F053FAFFE744F2184061
:1038C000C5F60200016821F07001049A12691143E3
:1038D0000160FFE7FFE704980078000700283CD567
:1038E000FFE70498406944F21C41C5F602010968EB
:1038F00001F0700188422FD2FFE704984069002848
:1039000014D0FFE70498406940280FD0FFE70498DF
:10391000406950280AD0FFE704984069602805D024
:10392000FFE704984069702801D1FFE708E047F6F7
:103930001F60C0F6000040F2914104F011FAFFE769
:1039400044F21C40C5F60200016821F07001049A9F
:10395000526911430160FFE7FFE704980078C00651
:10396000002840D5FFE70498806944F21C41C5F661
:103970000201096801F4E061884233D2FFE704984C
:103980008069002818D0FFE704988069B0F5806F3F
:1039900012D0FFE704988069B0F5A06F0CD0FFE764
:1039A00004988069B0F5C06F06D0FFE7049880697D
:1039B000B0F5E06F01D1FFE708E047F61F60C0F601
:1039C000000040F2A34104F0CBF9FFE744F21C40B1
:1039D000C5F60200016821F4E061049A926911437E
:1039E0000160FFE7FFE704980078800600283CD5D7
:1039F000FFE70498C06944F22041C5F60201096856
:103A000001F0700188422FD2FFE70498C0690028B6
:103A100014D0FFE70498C06940280FD0FFE704984E
:103A2000C06950280AD0FFE70498C069602805D013
:103A3000FFE70498C069702801D1FFE708E047F666
:103A40001F60C0F6000040F2B54104F089F9FFE7BD
:103A500044F22040C5F60200016821F07001049A8A
:103A6000D26911430160FFE7FFE700F0CDF844F2AF
:103A70001841C5F602010A68C2F3032247F6AC53A7
:103A8000C0F600039A5C02F01F02D040009000983C
:103A9000096801F00F01595C01F01F01C84040F2B4
:103AA0000401C2F200410860009840F20001C2F235
:103AB0000041086040F20C00C2F200400068FDF7CF
:103AC00037F98DF80B009DF80B008DF81700FFE714
:103AD0009DF8170006B080BD82B00190009101985A
:103AE0003F21016044F21040C5F60200006800F07A
:103AF00007000199486044F21840C5F602000168C9
:103B000001F47061019A9160016801F00F01019A5E
:103B1000D160006800F070000199086144F21C4017
:103B2000C5F60200016801F07001019A5161006858
:103B300000F4E0600199886144F22040C5F602007B
:103B4000006800F070000199C86142F20000C5F2FF
:103B50000020006800F00F000099086002B0704774
:103B600080B582B000F050F844F21841C5F6020169
:103B70000A68C2F3032247F6AC53C0F600039A5C0E
:103B800002F01F02D04001900198096801F00F0176
:103B9000595C01F01F01C84040F20401C2F200412B
:103BA0000860019840F20002C2F20042106008680A
:103BB00002B080BD0000000080B5FFF7D1FF44F2E5
:103BC0001C41C5F602010968C1F3021147F6AC5267
:103BD000C0F60002515C01F01F01C84080BD00002A
:103BE00080B5FFF7BDFF44F21C41C5F6020109682C
:103BF000C1F3022147F6AC52C0F60002515C01F05D
:103C00001F01C84080BD00008AB044F21040C5F6D4
:103C10000200006800F0380001461828019100F207
:103C20006C810199DFE811F01900690169016901EE
:103C300069016901690169013B0069016901690163
:103C4000690169016901690141006901690169014D
:103C50006901690169016901470044F20040C5F644
:103C60000200006800F020000021B1EB501F0FD0CF
:103C7000FFE744F20040C5F602000068C0F3C1004F
:103C800049F20001C0F2D03121FA00F0029005E0C3
:103C900049F20000C0F2D0300290FFE733E140F675
:103CA0000010C0F23D0002902DE147F64000C0F246
:103CB0007D10029027E144F22840C5F60200016819
:103CC00001F0030108910068C0F30510079044F269
:103CD0002C40C5F60200006800F00100069006982E
:103CE00044F23441C5F60201096889B2C908484363
:103CF00000EE100AB8EE400A8DED040A079800287D
:103D000000F0F780FFE708980028009009D0FFE74F
:103D1000009801286AD0FFE70098022800F08A8006
:103D2000ACE044F20040C5F60200006800F020005C
:103D30000021B1EB501F34D0FFE744F20040C5F63C
:103D400002000068C0F3C10049F20001C0F2D031A6
:103D500021FA00F005909DED050AB8EE400A9DEDB0
:103D6000071AB8EE411A80EE010A44F23040C5F657
:103D7000020000686FF35F2001EE100AB8EE411AEE
:103D80009DED042A9FED623A82EE032A31EE021A7B
:103D9000B7EE002A31EE021A20EE010A8DED030A79
:103DA00023E09DED070AB8EE400A9FED5B1A81EE15
:103DB000000A44F23040C5F6020000686FF35F204D
:103DC00001EE100AB8EE411A9DED042A9FED503A1B
:103DD00082EE032A31EE021AB7EE002A31EE021A01
:103DE00020EE010A8DED030AFFE76BE09DED070A67
:103DF000B8EE400A9FED471A81EE000A44F23040C7
:103E0000C5F6020000686FF35F2001EE100AB8EEFD
:103E1000411A9DED042A9FED3E3A82EE032A31EECF
:103E2000021AB7EE002A31EE021A20EE010A8DEDD9
:103E3000030A47E09DED070AB8EE400A9FED331AEA
:103E400081EE000A44F23040C5F6020000686FF3CC
:103E50005F2001EE100AB8EE411A9DED042A9FED95
:103E60002C3A82EE032A31EE021AB7EE002A31EE26
:103E7000021A20EE010A8DED030A23E09DED070AE8
:103E8000B8EE400A9FED231A81EE000A44F230405A
:103E9000C5F6020000686FF35F2001EE100AB8EE6D
:103EA000411A9DED042A9FED1A3A82EE032A31EE63
:103EB000021AB7EE002A31EE021A20EE010A8DED49
:103EC000030AFFE744F23040C5F60200006880B202
:103ED000012101EB502009909DED030A9DED091A87
:103EE000B8EE411A80EE010ABCEEC00A8DED020A5E
:103EF00002E000200290FFE705E040F60010C0F26B
:103F00003D000290FFE702980AB0704720BCBE4B0C
:103F1000000000460024744A0024744C0000000095
:103F200080B58CB00A900A98002805D1FFE70120DF
:103F30008DF82F0000F086BF0A980068002828D06E
:103F4000FFE70A980078C007002822D1FFE70A9807
:103F5000006800F0020002281BD0FFE70A98006802
:103F600000F01000102814D0FFE70A98006800F055
:103F7000080008280DD0FFE70A98006800F0040048
:103F8000042806D0FFE70A9800788006002801D5AB
:103F9000FFE708E047F61F60C0F6000040F2A111FD
:103FA00003F0DEFEFFE70A980078C007002800F063
:103FB000D780FFE70A98406800280CD0FFE70A98EE
:103FC0004068B0F5803F06D0FFE70A984068B0F53A
:103FD000A02F01D1FFE708E047F61F60C0F6000000
:103FE0004FF4D37103F0BCFEFFE744F21040C5F676
:103FF0000200006800F03800069044F22840C5F640
:10400000020000680590069810280AD0FFE706987D
:1040100018281DD1FFE7059800F00300022817D1EA
:10402000FFE744F20040C5F60200006800F40030EB
:104030000021B1EB504F0AD0FFE70A9840680028F2
:1040400005D1FFE701208DF82F0000F0FBBE86E0D0
:10405000FFE70A984068B0F5803F09D1FFE744F2D6
:104060000040C5F60200016841F48031016033E090
:104070000A98406800280DD1FFE744F20040C5F6D9
:104080000200016821F480310160016821F480217F
:10409000016020E00A984068B0F5A02F0DD1FFE73D
:1040A00044F20040C5F60200016841F4802101603D
:1040B000016841F4803101600CE044F20040C5F633
:1040C0000200016821F480310160016821F480213F
:1040D0000160FFE7FFE7FFE7FFE70A984068002875
:1040E0001ED0FFE7FCF7CCFD0990FFE744F200404B
:1040F000C5F60200006800F400300021B1EB504F1B
:104100000DD1FFE7FCF7BCFD0999401A652805D3DE
:10411000FFE703208DF82F0000F094BEE6E71DE0D6
:10412000FCF7AEFD0990FFE744F20040C5F602003F
:10413000006800F400300021B1EB504F0DD0FFE7D4
:10414000FCF79EFD0999401A652805D3FFE7032077
:104150008DF82F0000F076BEE6E7FFE7FFE7FFE708
:104160000A9800788007002840F15081FFE70A98FC
:10417000C068002819D0FFE70A98C068012814D049
:10418000FFE70A98C06801280FD0FFE70A98C068C7
:1041900009280AD0FFE70A98C068112805D0FFE770
:1041A0000A98C068192801D1FFE708E047F61F60A8
:1041B000C0F600004FF4ED7103F0D2FDFFE70A985E
:1041C00000697F2801D8FFE708E047F61F60C0F6C6
:1041D000000040F2DB1103F0C3FDFFE744F21040A2
:1041E000C5F60200006800F03800049044F2284050
:1041F000C5F6020000680390049800280AD0FFE783
:104200000498182879D1FFE79DF80C008007002852
:1042100073D1FFE744F20040C5F60200006800F0E9
:1042200004000021B1EB900F0AD0FFE70A98C068A4
:10423000002805D1FFE701208DF82F0000F002BE15
:1042400044F20040C5F60200016821F019010A9A03
:10425000D26811430160FCF713FD0990FFE744F2B7
:104260000040C5F60200006800F004000021B1EB38
:10427000900F0DD1FFE7FCF703FD0999401A0328C1
:1042800005D3FFE703208DF82F0000F0DBBDE6E744
:10429000FFE7FCF7EDFC41F2030188421DD8FFE780
:1042A0000A98006940280AD1FFE744F20440C5F6A5
:1042B00002000168202262F3113101600CE044F237
:1042C0000440C5F60200016821F47C310A9A1269A3
:1042D00041EA02310160FFE70CE044F20440C5F618
:1042E0000200016821F0FE410A9A126941EA026166
:1042F0000160FFE7FFE7FFE787E00A98C068002852
:104300005CD0FFE744F20040C5F60200016821F0EE
:1043100019010A9AD26811430160FCF7B1FC0990B7
:10432000FFE744F20040C5F60200006800F0040018
:104330000021B1EB900F0DD1FFE7FCF7A1FC09992B
:10434000401A032805D3FFE703208DF82F0000F063
:1043500079BDE6E7FFE7FCF78BFC41F203018842F9
:104360001DD8FFE70A98006940280AD1FFE744F208
:104370000440C5F602000168202262F31131016099
:104380000CE044F20440C5F60200016821F47C31DF
:104390000A9A126941EA02310160FFE70CE044F237
:1043A0000440C5F60200016821F0FE410A9A126934
:1043B00041EA02610160FFE7FFE725E044F20040C7
:1043C000C5F60200016821F001010160FCF758FC0C
:1043D0000990FFE744F20040C5F60200006800F0D3
:1043E00004000021B1EB900F0DD0FFE7FCF748FC73
:1043F0000999401A032805D3FFE703208DF82F0001
:1044000000F020BDE6E7FFE7FFE7FFE70A98007846
:10441000C006002840F11181FFE70A98C069002812
:1044200005D0FFE70A98C069802801D1FFE708E0BE
:1044300047F61F60C0F6000040F22B2103F090FC0D
:10444000FFE70A98006A3F2801D8FFE708E047F62F
:104450001F60C0F600004FF40B7103F081FCFFE712
:1044600044F21040C5F60200006800F038000290E7
:1044700044F22840C5F6020000680190029808281E
:104480000AD0FFE70298182851D1FFE7019800F001
:10449000030001284BD1FFE744F20040C5F60200BB
:1044A000006800F480700021B1EB102F0AD0FFE704
:1044B0000A98C069802805D0FFE701208DF82F00F9
:1044C00000F0C0BCFFE7FCF7D3FB41F203018842D8
:1044D0001DD8FFE70A98006A20280AD1FFE744F2B6
:1044E0000440C5F602000168102262F39E6101607B
:1044F0000CE044F20440C5F60200016821F0F841E6
:104500000A9A126A41EA82610160FFE70CE044F214
:104510000C40C5F60200016821F07C510A9A126A2B
:1045200041EA02610160FFE7FFE7FFE784E00A98E4
:10453000C069002859D0FFE744F20040C5F60200E8
:10454000016841F080010160FCF79AFB0990FFE7E8
:1045500044F20040C5F60200006800F480700021BB
:10456000B1EB102F0DD1FFE7FCF78AFB0999401A38
:10457000032805D3FFE703208DF82F0000F062BC6D
:10458000E6E7FFE7FCF774FB41F2030188421DD820
:10459000FFE70A98006A20280AD1FFE744F20440A6
:1045A000C5F602000168102262F39E6101600CE012
:1045B00044F20440C5F60200016821F0F8410A9A6D
:1045C000126A41EA82610160FFE70CE044F20C40AC
:1045D000C5F60200016821F07C510A9A126A41EA8C
:1045E00002610160FFE7FFE725E044F20040C5F605
:1045F0000200016821F080010160FCF741FB099095
:10460000FFE744F20040C5F60200006800F4807045
:104610000021B1EB102F0DD0FFE7FCF731FB09991A
:10462000401A032805D3FFE703208DF82F0000F080
:1046300009BCE6E7FFE7FFE7FFE70A980078000715
:10464000002864D5FFE70A984069002805D0FFE7F5
:104650000A984069012801D1FFE708E047F61F608A
:10466000C0F6000040F26D2103F07AFBFFE70A98E4
:104670004069002825D0FFE744F27440C5F60200E7
:10468000016841F001010160FCF7FAFA0990FFE7C7
:1046900044F27440C5F60200006800F002000021F8
:1046A000B1EB500F0CD1FFE7FCF7EAFA0999401A79
:1046B000032804D3FFE703208DF82F00C2E3E7E7C8
:1046C00024E044F27440C5F60200016821F00101C3
:1046D0000160FCF7D5FA0990FFE744F27440C5F693
:1046E0000200006800F002000021B1EB500F0CD076
:1046F000FFE7FCF7C5FA0999401A032804D3FFE73E
:1047000003208DF82F009DE3E7E7FFE7FFE70A9816
:1047100000788006002864D5FFE70A9880690028A1
:1047200005D0FFE70A988069012801D1FFE708E07A
:1047300047F61F60C0F600004FF4267103F010FB2F
:10474000FFE70A988069002825D0FFE744F200407F
:10475000C5F60200016841F480510160FCF790FA4F
:104760000990FFE744F20040C5F60200006800F43B
:1047700000500021B1EB503F0CD1FFE7FCF780FA6D
:104780000999401A032804D3FFE703208DF82F006E
:1047900058E3E7E724E044F20040C5F60200016870
:1047A00021F480510160FCF76BFA0990FFE744F2B5
:1047B0000040C5F60200006800F400500021B1EB93
:1047C000503F0CD0FFE7FCF75BFA0999401A032829
:1047D00004D3FFE703208DF82F0033E3E7E7FFE77B
:1047E000FFE70A9800784007002840F1C280FFE701
:1047F0000A98806800280AD0FFE70A988068012894
:1048000005D0FFE70A988068052801D1FFE708E096
:1048100047F61F60C0F6000040F2C22103F0A0FA84
:10482000FFE744F60000C5F60200016841F480711C
:104830000160FCF725FA0990FFE744F60000C5F691
:1048400002000068C00500280CD4FFE7FCF718FA46
:104850000999401A652804D3FFE703208DF82F003B
:10486000F0E2EAE7FFE70A988068012809D1FFE74C
:1048700044F27040C5F60200016841F00101016098
:1048800032E00A98806800280DD1FFE744F27040BA
:10489000C5F60200016821F001010160016821F004
:1048A000040101601FE00A98806805280DD1FFE728
:1048B00044F27040C5F60200016841F00401016055
:1048C000016841F0010101600CE044F27040C5F65E
:1048D0000200016821F001010160016821F004017A
:1048E0000160FFE7FFE7FFE7FFE70A98806800281D
:1048F0001FD0FFE7FCF7C4F90990FFE744F27040CE
:10490000C5F60200006800F002000021B1EB500F74
:104910000ED1FFE7FCF7B4F90999401A41F2893149
:10492000884204D3FFE703208DF82F008AE2E5E7F1
:104930001EE0FCF7A5F90990FFE744F27040C5F6C8
:104940000200006800F002000021B1EB500F0ED011
:10495000FFE7FCF795F90999401A41F2893188423D
:1049600004D3FFE703208DF82F006BE2E5E7FFE7B4
:10497000FFE70A98406A00280AD0FFE70A98406AD1
:10498000012805D0FFE70A98406A022801D1FFE715
:1049900008E047F61F60C0F600004FF43D7103F0D9
:1049A000DFF9FFE70A98406A002800F04782FFE736
:1049B00044F21040C5F60200006800F038001828E4
:1049C00000F0A481FFE70A98406A022840F078814D
:1049D000FFE70A98806A01280FD0FFE70A98806AEB
:1049E00000280AD0FFE70A98806A032805D0FFE76D
:1049F0000A98806A022801D1FFE708E047F61F60A5
:104A0000C0F6000040F2FD2103F0AAF9FFE70A9882
:104A1000006C00280FD0FFE70A98006C04280AD029
:104A2000FFE70A98006C082805D0FFE70A98006C99
:104A30000C2801D1FFE708E047F61F60C0F6000030
:104A400040F2FE2103F08CF9FFE70A98406C002841
:104A500005D0FFE70A98406C022801D1FFE708E083
:104A600047F61F60C0F6000040F2FF2103F078F91E
:104A7000FFE70A98C06A002806D0FFE70A98C06AD4
:104A80003F2801D8FFE708E047F61F60C0F60000A6
:104A90004FF4407103F064F9FFE70A98006B0428B3
:104AA00007D3FFE70A98006BB0F5007F01D8FFE756
:104AB00008E047F61F60C0F6000040F2013103F045
:104AC0004FF9FFE70A98406B002806D0FFE70A98E5
:104AD000406B802801D8FFE708E047F61F60C0F66A
:104AE000000040F2023103F03BF9FFE70A98806BC7
:104AF000002806D0FFE70A98806B802801D8FFE7DE
:104B000008E047F61F60C0F6000040F2033103F0F2
:104B100027F9FFE70A98C06B002806D0FFE70A983C
:104B2000C06B802801D8FFE708E047F61F60C0F699
:104B300000004FF4417103F013F9FFE70A98806C0D
:104B40000021B1EB503F01D1FFE708E047F61F60BD
:104B5000C0F6000040F2053103F002F9FFE744F22D
:104B60000040C5F60200016821F080710160FCF789
:104B700087F80990FFE744F20040C5F6020000689C
:104B800000F000700021B1EB506F0CD0FFE7FCF794
:104B900077F80999401A032804D3FFE703208DF81A
:104BA0002F004FE1E7E7FFE744F22840C5F6020097
:104BB000016840F2F33291430A9A936AD26A43EA57
:104BC0000212114301600A98016B426B836BC06B48
:104BD00001396FF35F214FF6006CCFF6FF7C0CEBD1
:104BE000422292B211440022CFF6FF7202EB03423E
:104BF00002F4FE0211444FF07F4202EB006000F02D
:104C0000FE40084444F23041C5F602010860FFE767
:104C100044F22C40C5F60200016821F00101016058
:104C200044F23441C5F602010A684FF6F8739A431C
:104C30000A9B9B6C42EAC3020A60016821F00C01E6
:104C40000A9A126C11430160016821F002010A9A6C
:104C5000526C11430160016841F4803101600168C8
:104C600041F400310160016841F480210160016874
:104C700041F00101016044F20040C5F60200016804
:104C800041F080710160FBF7FBFF0990FFE744F200
:104C90000040C5F60200006800F000700021B1EB92
:104CA000506F0CD1FFE7FBF7EBFF0999401A03287F
:104CB00004D3FFE703208DF82F00C3E0E7E724E0EB
:104CC00044F20040C5F60200016821F080710160E5
:104CD000FBF7D6FF0990FFE744F20040C5F602005B
:104CE000006800F000700021B1EB506F0CD0FFE7BE
:104CF000FBF7C6FF0999401A032804D3FFE70320F6
:104D00008DF82F009EE0E7E7FFE796E044F22840A9
:104D1000C5F602000068089044F23040C5F6020073
:104D2000006807900A98406A012837D0FFE7089882
:104D300000F003000A99896A88422FD1FFE708989A
:104D400000F47C700A99C96AB1EB101F26D1FFE705
:104D500007986FF35F200A99096B013988421DD1CA
:104D6000FFE7BDF81C000A99496B0139B1EB502FE0
:104D700014D1FFE7079800F4FE000A99896B013906
:104D8000B1EB104F0AD1FFE7079800F0FE400A99F7
:104D9000C96B0139B1EB106F04D0FFE701208DF82A
:104DA0002F004FE044F23440C5F60200006880B2A4
:104DB000C00808900A98806C089988423BD0FFE7A9
:104DC0000A98806C0021B1EB503F01D1FFE708E069
:104DD00047F61F60C0F600004FF45B7102F0C0FFA1
:104DE000FFE744F22C40C5F60200016821F0010102
:104DF0000160FBF745FF0990FFE7FBF741FF0999C9
:104E0000401A002801D1FFE7F7E744F23440C5F625
:104E1000020001684FF6F87291430A9A926C41EAD7
:104E2000C201016044F22C40C5F60200016841F065
:104E300001010160FFE7FFE7FFE7FFE700208DF8D2
:104E40002F00FFE79DF82F000CB080BD0000000090
:104E500081B0009001B0704781B0009001B0704700
:104E600081B0009001B0704780B584B00290029884
:104E7000002804D1FFE701208DF80F0052E10298CD
:104E800000680021C4F20101884272D0FFE7029855
:104E90000068B0F1804F6CD0FFE70298006840F2E4
:104EA0000041C4F20001884263D0FFE70298006825
:104EB00040F60001C4F2000188425AD0FFE7029890
:104EC000006840F60041C4F20001884251D0FFE77B
:104ED0000298006841F20001C4F20001884248D003
:104EE000FFE70298006841F20041C4F200018842E5
:104EF0003FD0FFE70298006840F20041C4F2010190
:104F0000884236D0FFE70298006841F60001C4F2FB
:104F1000000188422DD0FFE70298006841F6004169
:104F2000C4F20001884224D0FFE70298006842F2F0
:104F30000001C4F2000188421BD0FFE7029800681C
:104F400044F20001C4F20101884212D0FFE7029846
:104F5000006844F20041C4F20101884209D0FFE731
:104F60000298006844F60001C4F20101884201D1B0
:104F7000FFE708E047F60670C0F600004FF48B71BB
:104F800002F0EEFEFFE702988068002814D0FFE7E9
:104F90000298806810280FD0FFE7029880682028C8
:104FA0000AD0FFE702988068402805D0FFE7029802
:104FB0008068602801D1FFE708E047F60670C0F678
:104FC000000040F2171102F0CBFEFFE702980069E3
:104FD00000280CD0FFE702980069B0F5807F06D06A
:104FE000FFE702980069B0F5007F01D1FFE708E014
:104FF00047F60670C0F600004FF48C7102F0B0FE68
:10500000FFE7029800680121B0F1804F01910CD0B8
:10501000FFE7029800684FF20041CBF6FF710844A9
:10502000B0FA80F040090190FFE70198C00700281E
:105030000BD1FFE70298C06800280CD0FFE7029868
:10504000C068B0F5803F05D305E00298C06800282D
:1050500001D0FFE708E047F60670C0F6000040F216
:10506000191102F07DFEFFE702988069002805D043
:10507000FFE702988069802801D1FFE708E047F642
:105080000670C0F600004FF48D7102F069FEFFE774
:10509000029890F83D00002808D1FFE7029800210F
:1050A00080F83C10029800F043F8FFE702980221D4
:1050B00080F83D10029850F8041B009008460099B3
:1050C00001F0BEFB0298012180F84810FFE702982A
:1050D000012180F83E10029880F83F10029880F875
:1050E0004010029880F84110029880F8421002980F
:1050F00080F84310FFE7FFE70298012180F8441091
:10510000029880F84510029880F84610029880F8BE
:105110004710FFE70298012180F83D1000208DF82C
:105120000F00FFE79DF80F0004B080BD00000000F5
:1051300081B0009001B0704780B584B002900298B1
:1051400000680021C4F20101884272D0FFE7029892
:105150000068B0F1804F6CD0FFE70298006840F221
:105160000041C4F20001884263D0FFE70298006862
:1051700040F60001C4F2000188425AD0FFE70298CD
:10518000006840F60041C4F20001884251D0FFE7B8
:105190000298006841F20001C4F20001884248D040
:1051A000FFE70298006841F20041C4F20001884222
:1051B0003FD0FFE70298006840F20041C4F20101CD
:1051C000884236D0FFE70298006841F60001C4F239
:1051D000000188422DD0FFE70298006841F60041A7
:1051E000C4F20001884224D0FFE70298006842F22E
:1051F0000001C4F2000188421BD0FFE7029800685A
:1052000044F20001C4F20101884212D0FFE7029883
:10521000006844F20041C4F20101884209D0FFE76E
:105220000298006844F60001C4F20101884201D1ED
:10523000FFE708E047F60670C0F6000040F2D31121
:1052400002F08EFDFFE7029890F83D00012804D09F
:10525000FFE701208DF80F0071E00298022180F82D
:105260003D1002980068C16841F00101C1600298D8
:1052700000680021C4F2010188423CD0FFE7029897
:105280000068B0F1804F36D0FFE70298006840F226
:105290000041C4F2000188422DD0FFE70298006867
:1052A00040F60001C4F20001884224D0FFE70298D2
:1052B000006840F60041C4F2000188421BD0FFE7BD
:1052C0000298006840F20041C4F20101884212D005
:1052D000FFE70298006841F60001C4F2000188422D
:1052E00009D0FFE70298006844F20001C4F201010E
:1052F000884219D1FFE70298006880680721C0F250
:10530000010108400190019806280CD0FFE70198A0
:10531000B0F5803F07D0FFE702980068016841F0D0
:1053200001010160FFE706E002980068016841F0B2
:1053300001010160FFE700208DF80F00FFE79DF8F5
:105340000F0004B080BD000081B0009001B0704734
:1053500080B582B0019001980068006900F00200F9
:105360000021B1EB500F29D0FFE701980068C06819
:1053700000F002000021B1EB500F1ED0FFE70198B2
:1053800000686FF002010161019801210177019825
:10539000006880698007002804D0FFE70198FFF7C4
:1053A000D3FF06E0019800F033F9019800F034F9DA
:1053B000FFE7019800210177FFE7FFE70198006808
:1053C000006900F004000021B1EB900F29D0FFE745
:1053D00001980068C06800F004000021B1EB900F54
:1053E0001ED0FFE7019800686FF004010161019889
:1053F0000221017701980068806910F4407F04D091
:10540000FFE70198FFF7A0FF06E0019800F000F920
:10541000019800F001F9FFE7019800210177FFE70B
:10542000FFE701980068006900F008000021B1EB77
:10543000D00F29D0FFE701980068C06800F008008D
:105440000021B1EBD00F1ED0FFE7019800686FF08C
:105450000801016101980421017701980068C06981
:105460008007002804D0FFE70198FFF76DFF06E0F2
:10547000019800F0CDF8019800F0CEF8FFE7019810
:1054800000210177FFE7FFE701980068006900F05D
:1054900010000021B1EB101F29D0FFE70198006830
:1054A000C06800F010000021B1EB101F1ED0FFE714
:1054B000019800686FF010010161019808210177DF
:1054C00001980068C06910F4407F04D0FFE701989C
:1054D000FFF73AFF06E0019800F09AF8019800F013
:1054E0009BF8FFE7019800210177FFE7FFE70198AC
:1054F00000680069C007002811D0FFE70198006824
:10550000C068C007002809D0FFE7019800686FF065
:1055100001010161019800F083F8FFE7FFE70198BE
:1055200000680069C0B20021B1EBD01F13D0FFE7C3
:1055300001980068C068C0B20021B1EBD01F09D04B
:10554000FFE7019800686FF0800101610198FFF7A3
:1055500083FCFFE7FFE701980068006900F48070B2
:105560000021B1EB102F13D0FFE701980068C0684D
:10557000C0B20021B1EBD01F09D0FFE7019800684D
:105580006FF4807101610198FFF762FCFFE7FFE7AC
:1055900001980068006900F040000021B1EB901F05
:1055A00014D0FFE701980068C06800F040000021B7
:1055B000B1EB901F09D0FFE7019800686FF0400140
:1055C0000161019800F03CF8FFE7FFE701980068EF
:1055D000006900F020000021B1EB501F14D0FFE75C
:1055E00001980068C06800F020000021B1EB501F56
:1055F00009D0FFE7019800686FF020010161019870
:10560000FFF72EFCFFE7FFE702B080BD00000000BF
:1056100081B0009001B0704781B0009001B0704738
:1056200080B582B00190019800680021C4F20101A8
:10563000884203D1FFE7FBF72BFBFFE702B080BDF9
:1056400081B0009001B0704780B584B0029002989C
:10565000006841F20001C4F2010188423FD0FFE737
:105660000298006844F20041C4F20001884236D03A
:10567000FFE70298006844F60001C4F20001884286
:105680002DD0FFE70298006844F60041C4F2000103
:10569000884224D0FFE70298006845F20001C4F276
:1056A000000188421BD0FFE70298006841F20041E8
:1056B000C4F20101884212D0FFE70298006847F661
:1056C0000001C4F20001884209D0FFE70298006897
:1056D00047F60041C4F20001884201D1FFE708E02B
:1056E00047F67770C0F600004FF40D7102F038FBFA
:1056F000FFE7FFE7029890F88400012804D1FFE754
:1057000002208DF80F002CE00298012180F884100F
:10571000FFE7FFE702982421C0F88810029800688C
:105720000068019002980068016821F001010160A1
:10573000019820F0005001900298002141660198E4
:1057400002990968086002982021C0F88810FFE7D4
:105750000298002180F88410FFE700208DF80F00E8
:10576000FFE79DF80F0004B080BD000000000000BE
:1057700080B584B0029001910298006841F2000166
:10578000C4F2010188423FD0FFE70298006844F26A
:105790000041C4F20001884236D0FFE70298006859
:1057A00044F60001C4F2000188422DD0FFE70298C0
:1057B000006844F60041C4F20001884224D0FFE7AB
:1057C0000298006845F20001C4F2000188421BD033
:1057D000FFE70298006841F20041C4F201018842EB
:1057E00012D0FFE70298006847F60001C4F20001FA
:1057F000884209D0FFE70298006847F60041C4F2EA
:105800000001884201D1FFE708E047F67770C0F653
:10581000000040F2932102F0A3FAFFE7019800286C
:1058200019D0FFE70198B0F1007F14D0FFE701988D
:10583000B0F1806F0FD0FFE70198B0F1C06F0AD0D0
:10584000FFE70198B0F1006F05D0FFE70198B0F1D4
:10585000206F01D1FFE708E047F67770C0F600003F
:105860004FF4257102F07CFAFFE7FFE7029890F809
:105870008400012804D1FFE702208DF80F0032E0F8
:105880000298012180F88410FFE7FFE702982421A5
:10589000C0F88810029800680068009002980068BC
:1058A000016821F00101016002980068806820F021
:1058B000606001990843029909688860029801F0C4
:1058C0008FF8009802990968086002982021C0F8B2
:1058D0008810FFE70298002180F88410FFE700207D
:1058E0008DF80F00FFE79DF80F0004B080BD0000A9
:1058F00080B584B0029001910298006841F20001E5
:10590000C4F2010188423FD0FFE70298006844F2E8
:105910000041C4F20001884236D0FFE702980068D7
:1059200044F60001C4F2000188422DD0FFE702983E
:10593000006844F60041C4F20001884224D0FFE729
:105940000298006845F20001C4F2000188421BD0B1
:10595000FFE70298006841F20041C4F20101884269
:1059600012D0FFE70298006847F60001C4F2000178
:10597000884209D0FFE70298006847F60041C4F268
:105980000001884201D1FFE708E047F67770C0F6D2
:10599000000040F2622102F0E3F9FFE701980028DD
:1059A00019D0FFE70198B0F1005F14D0FFE701982C
:1059B000B0F1804F0FD0FFE70198B0F1C04F0AD08F
:1059C000FFE70198B0F1004F05D0FFE70198B0F173
:1059D000204F01D1FFE708E047F67770C0F60000DE
:1059E00040F2632102F0BCF9FFE7FFE7029890F86C
:1059F0008400012804D1FFE702208DF80F0032E077
:105A00000298012180F88410FFE7FFE70298242123
:105A1000C0F888100298006800680090029800683A
:105A2000016821F00101016002980068806820F09F
:105A3000604001990843029909688860029800F063
:105A4000CFFF009802990968086002982021C0F8E9
:105A50008810FFE70298002180F88410FFE70020FB
:105A60008DF80F00FFE79DF80F0004B080BD000027
:105A700080B582B000900098002804D1FFE7012093
:105A80008DF80700FFE00098806900285CD0FFE7F0
:105A90000098006841F20001C4F20101884248D038
:105AA000FFE70098006844F20041C4F20001884218
:105AB0003FD0FFE70098006844F60001C4F20001FF
:105AC000884236D0FFE70098006844F60041C4F2EF
:105AD000000188422DD0FFE70098006845F20001E0
